:1000000010C017C016C015C014C013C012C011C054
:1000100010C00FC00EC00DC00CC00BC00AC009C07C
:1000200008C011241FBECFE5D1E0DEBFCDBF26D072
:1000300059C0E6CF8DEF8ABB8FEF87BB1BBA18BACA
:100040008FE781BF90E080E80FB6F89486BD96BD3B
:100050000FBE80E590E095BD84BD88E090E09BBD3B
:100060008ABD19BC18BC0895892B21F082E88FBD88
:1000700089E102C08FEF8FBD8EBD0895DBDF22E8DE
:1000800099E18FEFC99B15C08FBD8EBDDB983FEF07
:100090004EE954E2315040405040E1F700C00000CA
:1000A000DB9A3FE748E351E0315040405040E1F7F0
:1000B00016C02FBD9EBDDB98DA9A3FEF41EE54E0AB
:1000C000315040405040E1F700C00000DB9ADA9820
:1000D0003FEF41EE54E0315040405040E1F700C066
:0800E0000000D0CFF894FFCF1F
:00000001FF
