:1000000010C017C016C015C014C013C012C011C054
:1000100010C00FC00EC00DC00CC00BC00AC009C07C
:1000200008C011241FBECFE5D1E0DEBFCDBF29D06F
:1000300056C0E6CF8DEF8ABB8FEF87BB1BBA18BACD
:100040008FE781BF90E080E80FB6F89486BD96BD3B
:100050000FBE82E88FBD89E18EBD89E290E095BD3B
:1000600084BD84E190E09BBD8ABD19BC18BC8BE2C5
:1000700080BF81E083BF8AE086BF82E38CBF0895A2
:100080000895D8DFDA9AC99B13C0DB9A2FEF80E777
:1000900092E0215080409040E1F700C00000DB98E2
:1000A0002FEF80E792E0215080409040E1F714C0AC
:1000B000DB9ADA982FEF89E698E121508040904052
:1000C000E1F700C00000DB98DA9A2FEF89E698E1AB
:1000D000215080409040E1F700C00000D4CFF89458
:0200E000FFCF50
:00000001FF
