:1000000010C017C016C015C014C013C012C011C054
:1000100010C00FC00EC00DC00CC00BC00AC009C07C
:1000200008C011241FBECFE5D1E0DEBFCDBF27D071
:1000300028C0E6CF8FEF8ABB87BB1BBA18BA8FE701
:1000400081BF90E080E80FB6F89486BD96BD0FBEE4
:1000500082E88FBD89E18EBD89E290E095BD84BDC7
:1000600084E190E09BBD8ABD19BC18BC8BE280BFC7
:1000700081E083BF8AE086BF82E38CBF0895DADF28
:06008000FFCFF894FFCF52
:00000001FF
